:400000000040002011000000F1060000F106000080B500AF00F076FB80B500AF284B12221A6000F0F3FD274B181C01F079FD012000F0FCFD302000F03BFC234B234A1A6054
:40004000234B8022D2051A60224B224A126802210A431A60204B214A1A60214B00221A60204B204A126808218A431A60FA23DB00181C00F069FC1C4B181C00F06BFD1B4BF1
:40008000BC2292011A601A4B1A4A1A601A4B822212061A60194B8022D2021A60184B40221A60184B0820191C00F098FC082000F00FFD074B8022D2051A60BD4680BDC046F1
:4000C00030001040001BB70004010B40060000800C020B4078002E407C002E402D3E000064F02E406CF02E40DC050000000301400000014040FF008008010B4000010B40F3
:40010000180101407D0D000080B582B000AF72B6354B00221A60FB1D00221A7023E0FB1D1A78131C5B009B185B00304A9B183B603B681A78597809020A43997809040A43E7
:40014000DB781B061343191C3B681A795B791B0213439BB2081C191C00F058FBFB1D1A78FB1D01321A70FB1D1B78012BD7D9204BEE2212061A601F4B992212041A601E4BE9
:40018000992212041A601D4A1C4B1B78DBB202210B43DBB213701A4A194B1B78DBB23C218B43DBB214210B43DBB21370134A134B1B78DBB216210B43DBB21370114BD8228C
:4001C00012041A60104B81221A60104BC02212041A600F4B01221A60FFF71EFF00F026FBBD4602B080BDC0466CF02E40104001000000024000500F4030500F4000700F408D
:4002000001700F400800044000030440080304401803044010B5064C2378002B07D1054B002B02D0044800E000BF0123237010BD50100020000000005C3F010008B5084B20
:40024000002B03D00748084900E000BF07480368002B00D108BD064B002BFBD09847F9E7000000005C3F010054100020A80B00200000000080B584B000AF786039607B6861
:40028000282B0DD005D8012B0AD0052B00D183E087E0422B22D04C2B24D0412B0DD080E0002000F09FFE01F02BFC031E012B03D1002001F001FC74E073E03B4A3B68111CFD
:4002C0001A1C0223081C111C1A1C02F0D6FD374B01221A70012001F0EFFB62E0334B00221A705EE03B68FB60FB689B89122B26D1FB685B681A782E4B1A702E4B01221A70E8
:40030000FB681A1D2C4B101C00211A1C40230EF077FFFB685B681B781A1C01231A40274B1A60254B1A785B781B021A4300231204120C1B0C1B041343181C0EF0DFF9FB684A
:400340009B89162B27D1FB685B681A78184B1A70184B01221A70FB681A1D174B101C00211A1C40230EF04CFFFB685B681B781A1C01231A40124B1A600F4B1A785B781B0220
:400380001A4300231204120C1B0C1B041343181C0EF0B4F905E004E03B681A78094B1A70C046BD4604B080BDE82100206C10002070100020711000201C220020EC210020A7
:4003C000F02100206E10002080B586B000AF021CBB1D1A801B4B1B78022B30D10C23FB1810221A810C23FB18BA1D1A600C23FB1802229A800C23FA18134B101C00211A1C19
:4004000000230EF0FDFE0C23FA180F4B101C191C00220EF0BFFE0D4B1B68002B0FD00A4B0C22B9181A785B781B021A4300231204120C1B0C1B041343181C0EF009F9BD4685
:4004400006B080BD162200201C220020EC21002080B586B000AF021CBB1D1A801B4B1B78022B30D10C23FB1814221A810C23FB18BA1D1A600C23FB1802229A800C23FA186E
:40048000134B101C00211A1C00230EF0B9FE0C23FA180F4B101C191C00220EF07BFE0D4B1B68002B0FD00A4B0C22B9181A785B781B021A4300231204120C1B0C1B041343E3
:4004C000181C0EF0C5F8BD4606B080BD162200201C220020F021002090B5B5B000AF62B67D4B181C00F0E4FC01F046F901F054FA012001F0E1FA0023C822BA181360002322
:40050000C422BA1813605823FA18744B111C1A1C5823081C111C1A1C02F0AFFC3A1C704B111C1A1C5823081C111C1A1C02F0A5FC6C4B00221A606C4B00221A7002F0DEFCB7
:40054000694B1B78002B00D1C4E0684B1B78002B00D0BFE0002001F02DFA031C1A1CC223FB181A80C223FB181B881BB20020191C01F042FA031C1A1CC023FB181A800023A3
:40058000CC22BA18136090E0C023FB181A885823FB18CC21791809688900CB589A427DDD5823FB18CC22BA1812689200D358181C02F0C2FB031CBC22BA181360CC23FB18F5
:4005C0001B685A1E5823FB189200D358181C02F0B3FB031CB822BA1813603B1CCC22BA1812689200D358181C02F0A6FB031CB422BA181360CC23FB181B685A1E3B1C92006E
:40060000D358181C02F098FB031CB022BA181360B423FB181868B023FB18196802F00EFA031C1C1CBC23FB181868B823FB18196802F004FA031C201C191C01F095FF031C79
:40064000C822BA181360C823FB181868BC23FB18196802F0C1F8031CB422BA181068191C02F0ECF9031CC422BA181360C023FB181B88181C02F060FB031C181CC823FB18AF
:40068000196802F0A9F8031C181CC423FB18196801F0EEFD031C1A1C124B1A60CC23FB181B680133CC22BA181360CC23FB181B68152B00D868E7C023FB181B88181CFFF7B5
:4006C00083FEC023FB181B88181CFFF7C1FE642000F01CFA32E7C04675020000603F0100B83F0100741000206C1000206E10002080B500AF02F086FB031C1B680C2B00D160
:40070000FEE7FEE780B586B000AF224B7B61224B3B61204B7B6135E03B691B68FB603B695B68BB603B699B683B6000237B600CE0FB681A68BB681A60BB680433BB60FB689D
:400740000433FB607B6804337B607A683B689A42EED13B69DB683B6000237B6008E0BB6800221A60BB680433BB607B6804337B607A683B689A42F2D13B6910333B617B69B6
:40078000013B7B617B69002BC6D102F041FBFFF7A3FEFEE7010000003843010080B582B000AF154B144A126801218A431A6000237B600FE07B68032B04D8104B7A689200F4
:4007C000D35800E00E4B0F4A796889008B507B6801337B607B682F2BECD9FFF795FC0A4B00221A60044B044A126801210A431A60BD4602B080BDC046000010400000000043
:40080000F106000000000020C000002080B582B000AF786039607A683B68101C00211A1C02F034FBBD4602B080BDC04680B500AF0A4B03221A600A4B03221A60094B802257
:4008400012061A60084B01221A60084B00221A60012000F00DF8BD4680BDC046300030403000314000003A4000033A40000E3F4080B584B000AF021CFB1D1A700B4B1B6835
:40088000FB60FB1D1B78002B05D0FB68802212061343FB6003E0FB685B005B08FB60034BFA681A60BD4604B080BDC04680033A4090B58BB000AF78602723FC1801F039F95C
:4008C000031C2370184B1A680C23FB181A60174B1A680C23FB185A607B68033B144AD35C1A1C0C23FB189A60124B1A680C23FB18DA601C23FB18104A1A600C23FA181C23A4
:40090000FB185A600D4B1C22BA181A600C4B0D4A1A600A4B1B682723FB181B78181C01F00CF9BD460BB090BD08010B4000010B401C40010030001040B6EA0000080010406E
:40094000040010401700008080B584B000AF78600023FB60154B154A126801210A431A60134B144A1A60144B134A1268802109020A431A607B68002B12D01023FB600CE0B3
:40098000012000F0E7F800F019F8031E02D00023FB6005E07B68013B7B607B68002BEFD1FB68181CBD4604B080BDC04660F02E4078002E400220000010002E4080B582B0EC
:4009C00000AF054B1B68012213407B607B68181CBD4602B080BDC0460C002E4080B584B000AF021C3960FB1D1A7080239B05FB60FB1D1B781F2B02D9002000F07DF8FB1D1F
:400A00001B7810339B00FA68D3181B68BB60FB1D1B7810339B00FA68D3183A681A60BB68181CBD4604B080BD90B587B000AF021CFB1D1A70BB1D0A1C1A70BB1D1B78032B11
:400A400002D9002000F058F8FB1D1B781F2B02D9002000F051F8FB1D1B7803221340DB0006337B611323FC1801F063F8031C2370FB1D1B789B08DBB29B00144A9446634462
:400A80001B68FB607B6903229A40131CDA43FB681340FB60BB1D1A787B699A40131CFA681343FB60FB1D1B789B08DBB29B00074A94466344FA681A601323FB181B78181C7A
:400AC00001F03BF8BD4607B090BDC04600E400E080B582B000AF021CFB1D1A70054BFA1D12781F210A40012191400A1C1A60BD4602B080BD00E100E080B582B000AF021C36
:400B0000FB1D1A7001BEBD4602B080BD80B582B000AF786009E00C4B1B68181C01F000F87B680A4A944663447B607A6880231B029A42F0D8064B1B687A685343181C00F04B
:400B4000EFFFBD4602B080BDB80B00200080FFFFB00B002080B582B000AF021CBB1D1A80BB1D1B88044A12785343181C00F0D8FFBD4602B080BDC046B40B002080B500AF14
:400B80000E4B0E4A126801218A431A600B4B0B4A126802218A431A60094B094A126830218A4310210A431A60054B054A126807218A4301210A431A60BD4680BD00F02E4046
:400BC00000FF2E4080B500AF0E4B0E4A126802218A431A600C4B0C4A126807218A4302210A431A60084B084A126830218A4320210A431A60034B034A126801210A431A60C6
:400C0000BD4680BD00F02E4000FF2E4080B500AFFFF7B4FF044B044A1268802109060A431A60BD4680BDC04600F02E4080B584B000AF78600C4B1B6801221340FB607B686C
:400C4000002B02D0012B03D005E0FFF797FF06E0FFF7B8FF03E00020FFF74EFFC046FB68181CBD4604B080BD00F02E4090B583B000AFFC1D00F05DFF031C2370074B074A5E
:400C80001268C02109020A431A60FB1D1B78181C00F053FFBD4603B090BDC04600010B4080B500AF054B1A68C0231B02134001D0012300E00023181CBD4680BD00010B40D0
:400CC00090B583B000AFFC1D00F033FF031C23700C4B0C4A12680C490A408021C9010A431A60084B074A126807490A40802109020A431A60FB1D1B78181C00F01EFFBD46CE
:400D000003B090BD00010B40FF3FFFFF90B585B000AF78600B23FC1800F00BFF031C2370FFF7BEFF031E04D00123FB60FFF7C8FF01E00023FB607B680D4A13407B600D4B39
:400D40000C4A12680C4911407A680A431A60094B1B68FB68012B01D1FFF788FF0B23FB181B78181C00F0E9FEBD4605B090BDC0460404040010020B40FBFBFBFF80B500AF78
:400D8000334B1B68042213401FD0324B1B680422134017D0304B1B6804221340DA432D4B1B681A402B4B1A602B4B1B68042293431A1C294B1A60294B1B68002B02D0274B12
:400DC0001B6898470420FFF7A1FF214B1A688023DB00134022D01F4B1A688023DB00134017D01D4B1A688023DB001340DA43194B1B681A40174B1A60174B1B68184A1A40EC
:400E0000154B1A60154B5B68002B02D0134B5B6898478023DB00181CFFF778FF0C4B1A688023DB02134011D00A4B1A688023DB02134006D0094B9B68002B02D0074B9B68E3
:400E400098478023DB02181CFFF760FFBD4680BD10020B40C40B00208010002084100020FFFBFFFF80B500AF094B00221A70094B00221A70084B00221A7000F013F8074B72
:400E800000221A70064B00221A70BD4680BDC0461F220020182200201E220020F4210020FC21002080B500AF00F062FCBD4680BDB0B594B004AF78603E23FB1800221A80E0
:400EC0002823FA183E4B111C1A1C1423081C111C1A1C01F0D2FF3B4B1B78002B04D1FFF7C1FF384B01221A707B68002B5CD0364B7A681A603E23FB181B88002B29D11023A4
:400F0000FB181C22BA185A601023FB182022BA181A601023FB1800221A812023FB181B221A802023FB181B225A802023FB1804221A711C23FB1800221A703E23FC181023B6
:400F4000FA180E23FB18101C191C02F0B3F8031C23803E23FB181B88002B29D13E23FC181A481B49AE231A012823FD1805230093184B0193184B02932B1C01F0F1FF031CA7
:400F800023803E23FB181B88002B11D1134B01221A703E23FC18124B181C162108220EF0E1F8031C238003E03E23FB1801221A803E23FB181B88181CBD4610B0B0BDC046CA
:400FC0004C400100A0100020F821002015130000C8000020804B010079020000162200209840010090B585B000AF021CFB1D1A70FB1D1B78022B04D90E23FB1801221A8034
:401000004BE0294B1B78042B42D1284B1B78DBB21A1C042313403BD1FB1D1B78002B0BD1234B00221A82224B5B6820221A80204B5B6830225A8010E0FB1D1B78012B0CD105
:401040001B4B96221A821A4B5B68C822D2001A80174B5B688022D2015A80164BFA1D12781A700E23FC18124B181C0CF08BF9031C23800E23FB181B88002B08D10B4B1B784C
:40108000DBB204221343DAB2084B1A7005E004E00E23FB180422FF321A800E23FB181B88181CBD4605B090BD162200201F220020F80B00201E22002080B584B000AF786074
:4010C0000A1CFB1C1A700023BB60BB68002B20D07B689A79BB681A700F23FB1800221A7012E00F23FB181B780133BA68D3180F22BA18127879688A5C1A700F23FB181A7859
:401100000F23FB1801321A700F23FB181B78052BE7D9BD4604B080BD80B582B000AF78607B681B789AB27B6801331B789BB21B029BB213439BB2181CBD4602B080BDC04611
:4011400090B585B000AF78600F23FB1800221A707B689B890D22934237D17B681A1D7B680F217C18101C00211A1C40230EF048F8031C23700F23FB181B78002B1DD17B68FF
:401180005B68181CFFF7C8FF031C1A1C022313409BB2002B08D0104B1B68822251007A68081C111C984708E00B4B1B680622FF32111C7A68081C111C9847084B1B78DBB2AD
:4011C00001229343DAB2054B1A700F23FB181B78181CBD4605B090BDF82100201F22002090B585B000AF78600F23FC187B68181CFFF7A6FF031C2370144B1B78DBB21A1C85
:40120000012313401FD10F23FB181B78002B16D00823FB1812229A707B689A890823FB181A800823FB180F22BA181278DA707B680822BA181868111C0DF0CCF903E07B68DB
:4012400018680DF05BFABD4605B090BD1F22002080B582B000AF7860BD4602B080BDC04680B500AF034B00225A70024B00221A70BD4680BD1C22002080B582B000AF7860AD
:40128000BD4602B080BDC04680B500AFBD4680BD80B584B000AF78600E23FB1800221A707B689B79002B1CD10F23FB1800221A7012E00F23FB181B787A68D35C002B04D058
:4012C0000E23FB1801221A700BE00F23FB181A780F23FB1801321A700F23FB181B78052BE7D90E23FB181B78181CBD4604B080BD80B582B000AF021CBB1D1A80BD4602B017
:4013000080BDC04680B582B000AF7860BD4602B080BDC04680B588B000AF021C3960FB1D1A70C14B1B78DBB201221343DAB2BE4B1A70FB1D1B78412B00D193E123DC212BA4
:4013400000D1EAE00DDC022B00D1BCE002DC012B3BD0E4E1052B00D1BAE0062B00D1BCE0DDE1272B00D112E106DC242B00D104E1262B00D117E1D2E1282B00D10FE12A2B4B
:4013800000D1FFE0CBE14F2B00D1C1E10BDC432B00D18EE100DA89E14C2B00D1A6E14E2B00D1B7E1BBE1572B00D1B5E106DC502B00D1B3E1542B00D19DE1B0E1712B00D147
:4013C0002BE1FA2B00D19BE1A9E11023FB1807221A701023FB1800225A701023FB18181C03F02CFD1023FB1807221A701023FB1801225A701023FB18181C03F01FFD8B4B99
:401400001B68181CFFF744FF031E11D0874B1B68181C01F077FD854B1B68181C0021FFF74BFE824B1B68181C0121FFF745FE36E07F4B1B781A1C3F231A407E4B1B78191C10
:401440003F230B409B011A437B4B1B78191C1F230B401B031A43794B1B78191C7F230B405B041343BB61BB69DAB2754B1A70BB691B0ADAB2724B5A70BB691B0CDAB2704BFE
:401480009A706F4B181C01F03DFD6D4B181C0021FFF712FE6A4B181C0121FFF70DFE00200BF01EFE0C23FB183F221A700C23FB1800225A700C23FB18181C0BF02FFE614B0E
:4014C00004221A702BE13B68181CFFF7D5FE26E13B681A785C4B1A7021E13B687B617B691B78002B18D17B695B78002B0BD1574B0022DA80554B00229A80544B544A1A60A8
:401500007B69524A5A60484B1B78DBB201229343DAB2454B1A7002E101E1434B1B78DBB21A1C2023134027D14A4B1B78102B02D1484B0522DA70484B1A78464B101C191C97
:401540000BF0DEFE031C1A1C0A23FB181A800A23FB181B88002B06D0404B1B680A22BA183620111C9847304B1B78DBB201221343DAB22D4B1A70D2E0D1E03B685A78384B16
:401580001A70CCE03B68181CFFF7BCFEC7E03B68181CFFF7B7FE2B4B02221A70BFE0294B04221A70BBE0274B1B78022B34D01E4B1B78DBB21A1C012313402DD01A4B1B7862
:4015C000DBB21A1C042313400BD01E4B03221A70154B1B78DBB204229343DAB2124B1A701AE0114B1B78DBB21A1C082313400BD0144B04221A700C4B1B78DBB20822934341
:40160000DAB2094B1A7007E00E4B1B78032B03D10C4B04221A7082E081E03B681B88181CFFF766FE7BE0C0461F220020140C00207CF1FF0F7DF1FF0F7BF1FF0F78F1FF0FE3
:401640000C0C00201622002018220020C8100020A80B0020CC0C00201C220020F8210020FC2100203B4A3B68111C1A1C0223081C111C1A1C01F001FC374B00221A70354B16
:401680001B781A1C162353439E2292009A18334BD3180133324A111C1A1C1623081C111C1A1C01F0EAFBFFF7EFFD38E0FFF7D8FD35E03B685B88162B05D81E23FB183A6808
:4016C00052881A8003E01E23FB1817221A803B681E22BA1811881A8800231204120C1B0C1B041343181C0CF07FFF18E03B68181CFFF776FD13E03B68181CFFF7A9FD0EE04F
:40170000184B1B7801221343DAB2164B1A7006E0C04604E0C04602E0C04600E0C046124B1B78DBB21A1C112313400FD00E4B1B78DBB201229343DAB20B4B1A700B4B1B684F
:40174000FA1D11783A68081C111C9847BD4608B080BDC0461C22002018220020804B010000220020F42100201F220020F821002080B500AFBD4680BD80B500AF064B1B7878
:40178000002B04D100F00AF8034B01221A7000F0E7F8BD4680BDC046D010002080B584B000AF0F200321FFF73FF9534B0F20191CFFF714F9514B01221A60514B1B68002B06
:4017C00001DA504900E05049504B504A12680A431A604F4B4F4A1A604F4B504A1A60504B00221A604F4B504A1A60504B4E4A1A604F4B4F4A1268802149020A431A604D4BA1
:4018000000221A604C4B00221A604C4B01221A604B4B1B687B607B684A4A13407B607B688022920513437B607B68012293437B60434B7A681A600023FB6057E00022DC2348
:401840009B0113407B60FB689B003F4A944663447A681A6000220123134009D0354B354A1268F96801208840011C89B20A431A6000220223134009D02F4B2F4A1268F968A5
:4018800001208840011C89B20A431A60002280239B00134003D080235B00BB6002E080235B01BB60002280235B00134005D1274BFA6852000021D15204E0244BFA685200CB
:4018C0000021D152BB68224A5343224A94466344181C214900F0DAFB031C9BB219B21F4BFA689200D150FB680133FB60FB68002BA4D0BD4604B080BD9D1A000020003A4040
:4019000080033A40700210537002005300003A4004003A408C00008018003A400000FF071C003A4010003A400200020014003A4000033A4028023A4038023A4018023A4059
:4019400030003A40FFFFFFDF80003A402022002010270000E40C0000C81900002422002080B500AF0A4B1B68002B0EDBC046094B1B68002BFBDB064B054A1268802109069F
:401980000A431A600A20FFF7E5F8BD4680BDC04600003A4008023A4080B500AF044B044A1268802149020A431A60BD4680BDC04604003A4080B584B000AF78607B68002BAF
:4019C00002D00020FFF798F87B68002B09D17B689B00084A944663441B681B041B0CFB6001E00023FB60FB689BB21BB2181CBD4604B080BD80013A4080B584B000AF786023
:401A00000A1CBB1C1A807B68002B02D00020FFF773F81F4B7A685200D35A99B2BB1C1A888BB2D31A9AB2BB1C1A80BB1C00229B5E184A5A43BB1C00215B5E002B08DD164B25
:401A400079688900CB58002B00DA01335B1008E0114B79688900CB58002B00DA01335B105B42D1180C4B7A689200D358081C191C00F00CFB031C1A1C0E23FB181A800E2390
:401A8000FB181B881BB2181CBD4604B080BDC04620220020102700002422002080B582B000AF044B1B687B60024B7A681A60BD4602B080BD10023A4080B584B000AF021C56
:401AC000FB1D1A700D4B1B68DAB20F23FB187F210A401A70FB1D1B78DB01D9B20F23FB180F22BA1812780A431A70044B0F22BA1812781A60BD4604B080BDC04600030440D2
:401B000080B500AF044B1B6880221340DB09DBB2181CBD4680BDC04604030440000000000230800803D00138FDD1C046C046C0467047EFF3108072B6704780F31088704754
:401B400090B583B000AFFC1DFFF7F3FF031C2370074B074A126804218A431A6030BFFB1D1B78181CFFF7E9FFBD4603B090BDC04610ED00E080B582B000AF78600A1CBB1C85
:401B80001A80BB1C1A887B681A60BD4602B080BD80B582B000AF78600A1CBB1C1A80BB1C1A887B681A60BD4602B080BD80B584B000AF494B1B78DBB21B02484A1278D2B2ED
:401BC0001343FB60464B1B78DBB21B02454A1278D2B21343BB60BB68434A934207D1FB68072B04D1414BBB600423FB6009E0BA68D4231B019A4204D1FB68042B01D13B4BAF
:401C0000BB603B4BBA681A603A4BFA681A603A4B1B78DBB21B02394A1278D2B21343FB60FA6880239B019A4202D0FB68002B01D1334BFB60334BFA681A60334B1B78DBB282
:401C40001B02324A1278D2B21343FB60FB68304A934206D0FB682F4A934202D0FB68052B01D12D4BFB602D4BFA681A602C4B1B681B097B602B4B1B68AA2B29D17B68012BA5
:401C800026D9214B1B78DBB20E2B21D1264B1B78DBB29BB21B0299B2244B1B78DBB29AB2BB1C0A431A80224BBA1C12881A60214B1B78DBB29BB21B0299B21F4B1B78DBB26D
:401CC0009AB23B1C0A431A801C4B3A1C12881A60BD4604B080BDC046D9F0FF0FD8F0FF0FDFF0FF0FDEF0FF0F580B0000580D00006C002E4074002E40DBF0FF0FDAF0FF0FF4
:401D00000220000078002E40DDF0FF0FDCF0FF0F0F0F000005050000050F000080002E40EC0F00F0E00F00F06DF2FF0F6CF2FF0F84002E406FF2FF0F6EF2FF0F94002E4048
:401D400080B582B000AF021CBB1D1A80BB1D1B88181CFEF7FFFEBD4602B080BD80B582B000AF78607B68181CFEF7D0FEBD4602B080BDC04680B500AF00F0DEF8BD4680BD80
:401D800080B500AF00F0E2F8BD4680BD80B500AF00F0DCF8044B181C00F09CF8032000F0A5F8BD4680BDC046611F000080B500AF024B181C00F07CF8BD4680BD611F000087
:401DC00080B500AF0223FF33181CBD4680BDC04680B582B000AF78602B23181CBD4602B080BDC04680B582B000AF78602B23181CBD4602B080BDC04680B582B000AF786070
:401E00002B23181CBD4602B080BDC04680B582B000AF78602B23181CBD4602B080BDC04680B582B000AF78602B23181CBD4602B080BDC04680B582B000AF78602B23181CE8
:401E4000BD4602B080BDC04680B582B000AF78602B23181CBD4602B080BDC04680B582B000AF78602B23181CBD4602B080BDC04680B500AF2B23181CBD4680BD80B582B08D
:401E800000AF021CFB1D1A702B23181CBD4602B080BDC04680B582B000AF786039602B23181CBD4602B080BD80B500AFBD4680BD80B582B000AF786000F048F87B68181CE5
:401EC00000F008F8032000F011F800F035F8BD4602B080BD80B582B000AF7860024B7A681A67BD4602B080BD0000002090B585B000AF021CFB1D1A700623FB600B23FC1868
:401F0000FFF717FE031C23700A4B0A4A1268C0218A43111CFA1D1078FA689040021C0A431A600B23FB181B78181CFFF706FEBD4605B090BD0CE400E080B500AF024B802286
:401F400052011A60BD4680BD00E100E080B500AF024B802252011A60BD4680BD80E100E080B500AF11F0E6FFBD4680BD002243088B4274D303098B425FD3030A8B4244D3EB
:401F8000030B8B4228D3030C8B420DD3FF22090212BA030C8B4202D31212090265D0030B8B4219D300E0090AC30B8B4201D3CB03C01A5241830B8B4201D38B03C01A5241F4
:401FC000430B8B4201D34B03C01A5241030B8B4201D30B03C01A5241C30A8B4201D3CB02C01A5241830A8B4201D38B02C01A5241430A8B4201D34B02C01A5241030A8B42BB
:4020000001D30B02C01A5241CDD2C3098B4201D3CB01C01A524183098B4201D38B01C01A524143098B4201D34B01C01A524103098B4201D30B01C01A5241C3088B4201D3AF
:40204000CB00C01A524183088B4201D38B00C01A524143088B4201D34B00C01A5241411A00D20146524110467047FFE701B5002000F0FCF802BDC0460029F7D003B5FFF749
:4020800075FF0EBC4243891A1847C04603460B437FD4002243088B4274D303098B425FD3030A8B4244D3030B8B4228D3030C8B420DD3FF22090212BA030C8B4202D312128F
:4020C000090265D0030B8B4219D300E0090AC30B8B4201D3CB03C01A5241830B8B4201D38B03C01A5241430B8B4201D34B03C01A5241030B8B4201D30B03C01A5241C30A71
:402100008B4201D3CB02C01A5241830A8B4201D38B02C01A5241430A8B4201D34B02C01A5241030A8B4201D30B02C01A5241CDD2C3098B4201D3CB01C01A524183098B422E
:4021400001D38B01C01A524143098B4201D34B01C01A524103098B4201D30B01C01A5241C3088B4201D3CB00C01A524183088B4201D38B00C01A524143088B4201D34B00C7
:40218000C01A5241411A00D201465241104670475DE0CA0F00D04942031000D34042534000229C4603098B422DD3030A8B4212D3FC22890112BA030A8B420CD3890192113C
:4021C0008B4208D3890192118B4204D389013AD0921100E08909C3098B4201D3CB01C01A524183098B4201D38B01C01A524143098B4201D34B01C01A524103098B4201D39E
:402200000B01C01A5241C3088B4201D3CB00C01A524183088B4201D38B00C01A5241D9D243088B4201D34B00C01A5241411A00D20146634652415B10104601D34042002B1C
:4022400000D54942704763465B1000D3404201B5002000F00BF802BD0029F8D003B5FFF715FF0EBC4243891A1847C0467047C046F8B54A00430244004E02C50F240E281C75
:402280009B09120EC90FB7098D4240D0A01A002800DC84E0002A1CD1002F5CD15A0704D00F221A40042A00D004338022D2041A40281C002A24D00134FF2C00D17BE09B01FD
:4022C0005B0AE4B25B02E4055B0A2343C0071843F8BDFF2CE2D08022D204174301261B2808DC391C20223E1CC140101A8640771EBE410E439B1B5A0133D4281C5A07CFD1DA
:40230000DB08FF2C1ED05B025B0AE4B2DAE7A11A002957DD002A3AD0FF2CBFD08022D204174301261B2972DD9B195A01E5D50134FF2C00D187E001218A4A194013405B0890
:402340000B43ABE7002B36D08022D20313435B025B0AFF24B6E7013800283FD1DB1B5A01CBD59B019E09301C00F02EFD05388640844223DC001B1F24321C431C201ADA40CA
:402380008640131C741EA6410024334386E7002F00D183E70139002950D1DB19C5E7002820D1621CD2B2012A5EDDDE1B720128D5FE1A0D1CD7E7FF24002383E7694B241A8F
:4023C00033406BE7002958D1621CD1B201293CDDFF2A37D0FB185B08141C5FE7FF2C00D07CE75BE7002C1ED0FF2A23D08024E404404223431B285BDD0123FB1A141C0D1C0F
:40240000ADE7002EAFD100230020002478E73A1CCA40944620223E1C511A8E406246771EBE41164380E7002B3ED0C0430028E4D0FF2ADFD13B1CFF240D1C2FE7FF2C00D0E4
:402440006FE72BE7FF2400235AE7002C5AD1002B7FD0002F00D121E7DB195A0100D44CE7404A0134134019E7002C15D1002B2FD1002F5DD03B1C0D1C10E7002C21D1002BD3
:4024800053D0C943002904D0FF2A4BD01B2957DD0123DB19141C48E7002B22D1002F4AD03B1C0D1CFF24F9E63B1C141C0D1CF5E61D1C2024C540201A8340581E83412B4322
:4024C0009BE7FF2A2ED08024E40449422343DDE7002F00D1E2E6DA1B50013CD5FB1A0D1CDCE6FF24002F00D1D8E68022DB08D203134204D0FE08164201D1331C0D1CDB00EC
:40250000FF24CBE6002B0DD0FF24002F00D1C5E68022DB08D2031342F1D0FE081642EED1331CECE73B1CFF24B8E63B1C141CB5E6231C0020E4E6802300209B04FF24DFE695
:402540001E1C2024CE40611A8B40591E8B4133439FE73B1CA2E6131E00D0CEE600230020CEE6C046FFFFFFFBF0B556464D465F464446F0B443024500C70F83B08A465C0A51
:402580002E0EB94641D0FF2E26D080231B042343DC00002398469B467F3E53465B025D0A53465A00DB0F120E9A4639D0FF2A33D080231B042B43DD0000237F3A5146B21A4E
:4025C00046467940081C01921E430F2E00D976E07E4AB6009659B746002C30D108239846063B9B46D9E780230021DB03FF245B02E4055B0AC90723430B43181C03B03CBCBD
:4026000090469946A246AB46F0BD002C28D104239846033B9B46C0E7002D1FD1022302E0002D11D10123B21A50464646784001921E430F2E27D86649B60089598F460C23F7
:402640009846093B9B46A8E7281C00F0BDFB7622431F52429D40121A0023AFE70323ADE7201C00F0B1FB431F9C4076235B421E1A002398469B4690E70025D1469B465B4637
:402680004846022B6FD10121FF2401400023AEE77E23019A5B429B1A1B2B6DDD01214B46194000240023A2E78023DB031C4249D18023DB0323435B025B0A391C96E763010F
:4026C0006D01AB4237D389461A2001215B1B01241E1C49005B00002E01DBAB4201D35B1B214301380028F3D1581E83410B431D1C019C7F34002CCBDD6B0704D00F232B403F
:40270000042B00D004352B0104D5019A314B8032141C1D40FE2C07DD4B460121FF241940002364E7251CAAE701214A46AB015B0AE4B211405BE7019A8946013A01921B202A
:402740000021C4E71D4207D023435B025B0A391C4CE700256302ABD58023DB032B435B025B0A514642E7032B25D0012BC0D101210024014000233AE7291CD9402B1C019A41
:402780009E3293405D1EAB410B435A0704D00F221A40042A00D004335A0105D54B46012101241940002322E701214A469B015B0A114000241BE7802301214A46DB032B436F
:4027C0005B020A405B0A111C10E7C0465042010090420100FFFFFFF7F0B55F4656464D464446F0B445024600C40F83B00F1C6D0A360EA34645D0FF2E25D080231B041D43E7
:4028000000239A46ED007F3E01937B025B0A98467800FB0F000E994640D0FF2838D0802342461B041343DB00984600237F384A46019F30186240411C1F430F2F69D87D4E93
:40284000BF00F659B746002D45D108230193063B9A46DAE793465346022B2FD15B46012400251C40FF236D02DB056D0AE4071D432543281C03B03CBC90469946A246AB466B
:40288000F0BD002D2CD104230193033B9A46BCE743465A4253410322D31AC8E742460123002AC4D0404600F08FFA4246431F9A4076235B42181A90460023B8E7032B00D11F
:4028C000ADE0012B00D08CE05B4654461C40E4B200230025C7E70C230193093B9A4694E7281C00F071FA7626431F9D4000237642361A01939A4688E780250024ED03FF23FB
:40290000B1E74546CB469A46A5E7454693469A46A1E743462C041B0C9C46230C444626041C1C360C2F0C7443351C66467D4373437743EB18260C9E19B54203D980235B022E
:402940009C46674424043304240C1B199D016C1EA5419B0E360C2B43BD19AD011D432B0104D5012368081D400543081C031C7F33002B2CDD690704D00F212940042900D07B
:402980000435290103D52C4B1D40031C8033FE2B17DD0124FF231440002564E78020C003054209D04346034206D1454605436D026D0A4C46FF2356E705436D026D0AFF23EC
:4029C00051E70124AD016D0ADBB214404BE77E235B421B1A1B2B07DD012400231440002541E7081C5A46C1E79E30291C8540D940681E85410D436B0704D00F232B40042BB1
:402A000000D004356B0104D5012401231440002529E70124AD016D0A1440002323E78023DB031D4301245B466D0223401C1C6D0AFF2318E7D0420100FFFFFFF7F8B54A0064
:402A4000430244004D02C00F240E061C9B09120EC90FAD09FF2A00D175E001277940884250D0A01A002800DC8FE0002A1ED1002D00D075E05A0704D00F221A40042A00D099
:402A8000043380220120D2041A403040002A32D00134FF2C00D184E09B015B0AE4B25B02E4055B0A2343C0071843F8BDFF2CE1D08022D20415431B287ADD01255B1B5A01FF
:402AC0005DD59B019F09381C00F07EF905388740844269DC001B1F243A1C431C201ADA408740131C7C1EA74100243B43C2E7131E45D100230020DB08FF2C28D05B025B0A1A
:402B0000E4B2CCE7A11A00295BDD002A2ED0FF2CB0D08022D20415431B2974DC2F1C2022CF40511A8D40691E8D413D435B195A0125D50134FF2C74D001217E4A194013404D
:402B40005B080B4396E7002D00D088E785E7002B27D08022D20313435B025B0AFF249EE701380028AAD0FF2CA5D183E7002D00D180E701390029D9D0FF2CCDD17AE75A0714
:402B800000D079E701203040B5E7002825D1621CD2B2012A55DD5F1B7A012DD5EF1A0E1C91E7FF2400237AE7624B241A3B4061E7291C2022C140101A8540681E85410D4331
:402BC0007CE7002946D1621CD1B201292BDDFF2A26D0EB185B08141C4CE7002C15D0FF2A1AD08024E404404223431B284DDD0123EB1A141C0E1C62E7002F00D063E70023DA
:402C00000020002477E7012590E7002B39D0C0430028EDD0FF2AE8D12B1CFF240E1C29E7FF24002367E7002C5AD1002B7FD0002D00D11FE75B195A01A1D53E4A01341340F5
:402C400018E7002C15D1002B2FD1002D5ED02B1C0E1C0FE7002C21D1002B54D0C943002904D0FF2A4CD01B2958DD01235B19141C5DE7002B23D1002D4BD02B1C0E1CFF241B
:402C8000F8E62B1C141C0E1CF4E61E1C2024C640201A8340581E83413343A9E7FF2A2FD08024E40449422343DDE7002D00D1E1E65A1B500100D41AE7EB1A0E1CDAE6FF241F
:402CC000002D00D1D6E68022DB08D203134204D0ED08154201D12B1C0E1CDB00FF24C9E6002B0DD0FF24002D00D1C3E68022DB08D2031342F1D0ED081542EED12B1CECE7F4
:402D00002B1CFF24B6E62B1C141CB3E6231C0020F1E6802300209B04FF24ECE61F1C2024CF40611A8B40591E8B413B439EE72B1CA0E6C046FFFFFFFB70B5041E39D0C50FE7
:402D400000D04442201C00F03FF89E23261C1B1A962B07DC082801DD083884406402640AD8B21EE0992B0ADD0522211C121AD1400A1C011C1B318E40711E8E4116430528C3
:402D800001DD421F96400F4C3440720704D00F221640042E00D0043462010ED4A401640AD8B26402C005640AED0704432C43201C70BD002500200024F3E7024B1C409F23E5
:402DC0001B1AEBE7FFFFFFFB1C2101231B04984201D3000C10391B0A984201D3000A08391B09984201D30009043902A2105C40187047C046040302020101010100000000E7
:402E000000000000014B18687047C0464C1000200E4B70B500251E1C0D4CE41AA410A54204D0AB00F35898470135F8E711F072FA084B00251E1C084CE41AA410A54204D020
:402E4000AB00F35898470135F8E770BD2043010020430100204301002843010030B50024944208D0035D651C0C5DA34201D0181B02E02C1CF4E7002030BD002310B59342EA
:402E800003D0CC5CC4540133F9E710BD031C8218934202D019700133FAE77047134A1088810703D08107890F401A001D11791030484381B25088820703D08207920F801A02
:402EC000001D800040180A494030098980B2CA0701D0503080B2890706D504495422091F09785143081880B270470000DA0C0020E010002010B501F0C7FE10BD10B500F07B
:402F000055FA10BD10B50749044609780220002907D1204601F008FF002802D120460AF0D5F910BD6C0E002070B504460120002C12D02368002B0FD0616800290CD0074D2F
:402F400006222889208118462968FFF796FF6968606809780170002070BD0000E0100020FFB585B0002768460E9D07734F481C460078002802D0082009B0F0BD10990F9849
:402F800001900095029105A807C800F001F90028F2D16946264603AB84460873002C19D0002115E08A00B75A082F09D990198078002805D0083FB7521878401C187005E0D3
:402FC000002914D00027B75290198770491CC9B2A942E7D360460028CED10F98002809D0109901F001FA002804D00120C4E701208446EFE701F048FE2D48002141608160ED
:403000000599016021888180022D07D3A1798171A17AC171A1890181218A418100211EE0481C19E082008B00A75AE65ABE46BE4211D26F463E80B4461E190296B678BE7023
:4030400001967646E6521719029EBB78B3706646A652019EBE70401CA842E3D3491CA942DED3134822460C3000906846037B0799069800F015F90028B8D168460B4C007B09
:4030800060700B480C3001F02FFE0028AED1084907480C3107F0FEF80028A7D107F018F90028A3D10121217066E70000D40C0020D4100020F8B5054633480E460078002873
:4030C00002D002242046F8BD002E5BD000242F49002D16D02A89D0070DD02868002808D003881B3BE12B04D24088FB2801D81B2801D2012409E0900707D56868002804D1D3
:40310000F7E70020088108604860002CDAD11F482F8907811C481B21801D018041800421017119490020891C0870F80705D016480622801D2968FFF7A0FE1449B80703D5B5
:403140006A681148127882700F480D46801D0860001F486001F00EFE0B48801D01F0FCFD28890DF0FDF828890DF064FA03461033FFF794FE1F21C0188901401802493080A3
:4031800088809FE701249DE7D40C0020E0100020FFB58446384F1C460020BB883F78054602460646002F11D100290ED0029999420BD36146002908D0002C06D00A99002986
:4031C00006D02E4B0B99994202D2012004B0F0BD002144E0AB001F19BF78002F3BD0E35A002B38D07B43591889B22B0000F04AF8050410161C253100A7782388BC46FF2748
:40320000233BEB37BB4222D26346032B1FD322E0A388002B1FD0302B19D31CE02389002B19D0282B13D316E0A289002A13D01346134F233BBB420AD20DE0268A002A0AD010
:4032400033460F4F233BBB4201D2964203D901200EE0002001E000280AD16D1CEDB2099B9D42B7D31C2463435B1802998B42ACD89642AAD8AAE70000D40C002079020000A2
:40328000BAFF000030B47446641E2578641CAB4200D21D46635D5B00E31830BC18470000FFB583B0002469460C801F4606468C80002806D00598002803D004983043800766
:4032C00001D0012466E0002FFBD03449049809888842F6D3FEF76AFDFEF752FD00F00EFC002855D100F076FD002851D12C49084601F0AEF805042D0C4AD12A48049906609A
:4033000081800021C18007810C98007AC00704D0684601F0D2FC040007D10C98007A800703D501A801F0D2FC0446BF1DFEB2002C20D13146059800F05DF804001AD10DF083
:4033400087F9040016D16A461088928808368518144AF1B29088D288AEB29319984207D3401B801A80B201F063FB050007D000E0FF25012400F05AFA002D04D008E0F8B220
:4033800000F01CF9F6E700F07DFA07490120087000F0C6FB204607B0F0BD0000D80C0020E1340000EC100020E00C002010B503480078012801D101F0DDF910BDE00C0020FC
:4033C00070B5084B0446DA889E8800205518B54206D81D68AA182260DA885118D98070BD032070BDEC1000200148008970470000EC100020F0B587B007460D4600208900D1
:40340000009006916846FFF7DBFF844600285DD1304800990160002117E02E4B88001A680629115406D22C4C0419667882185670628805E0C419203CA67A82185670228948
:403440001B68C018491C4280C9B2A942E5D300242DE0601CC2B2059025E01E4FA30039689600581840887118039604904E88B04217D938466F46FE80B6464F786E467771F4
:403480000297049F4F800168039F5E18767879184E700168764659184E800068029F18184770521CD2B2AA42D7D30598C4B2AC42CFD36046002809D168460699FFF780FF5A
:4034C0008446002802D1054900980860604607B0F0BD0000E40C002048430100E80C00207047000010B5002809D005494A68002A05D0011F08788000105801F047FA10BDFC
:40350000E40C002010B50446FFF76EFFC0B2801DA0420CD307484068002808D0A100405801F0A6F9002801D00470001D10BD002010BD0000E40C0020F8B516460D4604467F
:40354000FFF752FFC0B2801DA04203D20020C0430090F8BDB2B2E9B2684601F0AFF90099481C03D0024AA000526811500098F8BDE40C0020F8B50746FFF736FF801DC6B222
:403580000A49002005460C680DE06178002907D06188B94202D32078FFF7B4FF002804D1241D6D1CEDB2B542EFD3F8BDE40C002010B5002801D0FFF795FF10BD70B50646AF
:4035C0000948002504680BE06178002905D062882078121D0023FFF7AFFF241D6D1CEDB2B542F1D370BD0000E40C0020FFB581B00A9C16002BD000F0EFF80546042826D06E
:40360000214F002C0BD02046FFF7B4FF2901C919486000281BD022460499FFF72EFC1A4928010E5046187481019805707D20029CC000444300F0BEF8074604280AD000F062
:4036400053FAA0420ED800F04FFA201A06E0FF2005B0F0BD204600F0ABFA0020F06035720020F5E700F040FA009000F0B7FA00980121001B009000F0EDF803493A015118C8
:403680000098C860E6E70000F8100020F8B5060116483418217A042903D0E068002802D017E00020F8BD00F01FFA054600F096FA00F0A0F804280CD001010C480F18F8680D
:4036C0000021451900F0C6F80020F860284600F06FFA6068054D002801D0FFF769FF042020720020A8516081E060DAE7F8100020FEB500266A4630460123254905016918FC
:403700000D7A042D02D0C96800291BD000211154401CC0B20428F0D300246846005D002830D01B48210108184189476805680291002101604160042241810272C160002E34
:4037400002D015E01354E3E700F054F804280ED001010F4808180190C6680021304600F079F801980021C160304600F021FA0126002D07D038460299A847002F02D03846CD
:40378000FFF716FF641CE4B2042CC6D3FEBD0000F81000200EB5002005216A460090118150810348694600680DF0C7FD0EBD0000EC0C0020074A0020010189180B7A042BC2
:4037C00002D0C968002903D0401CC0B20428F3D370470000F81000200549002002015218127A042A03D0401CC0B20428F6D37047F810002030B50A4B04200A4C00210A0141
:403800001219157A042D06D0D268002A03D09A4201D808461346491CC9B20429EFD330BDFFFF0000F81000207047000030B50020074C05460423020111190B72A5504D6085
:40384000401C4D81C0B2CD600428F4D330BD0000F810002030B5094C00231A011219157A042D04D0D568002906D02D18D5605B1CDBB2042BF1D330BD2D1AF7E7F810002059
:40388000002070471CB5002469460C70142001902346054A05480DF055FD04480068401C00D1FF2420461CBD01390000EC0C00203EB5124A0146FF200023012412680029C3
:4038C0000DD0012914D0042908D104206946009308814B8110460DF030FD80B23EBD6846009304814381694610460DF021FDF4E768460093048143816946EBE7EC0C0020C7
:4039000070B545890468416800890300FFF7BAFC08280509091E22282628002005F08CFB1EE0022908D0C8B22A4621460BF0C8FE2046FFF73DFE13E002202A4621460BF01D
:40394000BFFE2946204600F00DF809E000200DF0E3F905E02046FFF7CBFE01E0FEF7A4FA002070BD014B0022DB681847F00C002070B5448905680089022803D0032809D0FE
:40398000FF2070BD2246094C0023A46829460120A04708E0FFF7AEFA241DA2B200232946022006F040FB002070BD0000F00C00207047000002480021416001804180704733
:4039C000F00C002070B50C46002186B016460391012802D0022859D116E003A9012006F06AFB01281BD1039D324621462846FFF744FA0095287801900220694608814E815B
:403A00006846FFF7B5FF41E0214D002B686809D0049004A9022006F04EFB01281DD0022006B070BD002812D0298840182146FFF724FA28880024801980B228806988091D22
:403A4000884206D12C801348FFF792FF03E00320E6E788421AD96C6018E004986860E278A378110219430B4A698000231060E3565360032313815181A1788170E178C1709E
:403A80006178417021780170042028800020C7E7F00C0020381100203EB515460C46022803D004280CD000203EBD0091019002206946088107484A8100680DF03EFC07E077
:403AC0000BF0FEFD044B0022DB6829462046984701203EBDEC0C0020F00C0020014AD16090607047F00C0020034801688068081A0A214843000970474411002010B5FEF776
:403B000045F9482204490548FFF7B7F903490120C870002010BD0000644301004815002010B5FEF727F910BD70B5134C2368002B08D0207B1149C20705D04008400020737F
:403B40008868A08070BD88680B4AA18880B29268814203D90A4D691A091802E0814202D2411A5118A160A080A0689842EAD30DF001FC00F013F870BD44110020C0102E4002
:403B8000FFFF000010B508461946FFF7A7FF10BD704710B5FFF780FF10BD000003480021016041608160C1607047000044110020024610B5FF20002A0CD0FFF7EFFF064C6A
:403BC0000321207B0843207310010A21FEF754FA2060002010BD00004411002000B504480A21806848430209FFF7D8FF104600BD441100200248007B8007C00F70470000F6
:403C00004411002010B54B490868002802DA4A4B01221A70022290430860484800694549C00B4031096A0246C907C90F0A4259D0012000F097FA3F480E216C30FDF7A8FF77
:403C40003E4820218430FDF7A3FF3C4814219C30FDF79EFF3948FF21C131A430FDF798FF3648FF212F31B030FDF792FF33483449BC30FDF78DFF31483249AC30FDF788FF19
:403C800030492E48491CB430FDF782FF2B482E49B830FDF77DFF29482C49CC30FDF778FF26482B490830FDF773FF24482949A830FDF76EFF214828498830FDF769FF1F48DC
:403CC00026498C30FDF764FF1C481921C9029030FDF75EFFFDF76AFFFEF772F8C0B2022812D01FE000290BD0002101420AD0114801216030FDF74CFF0120FEF72FF897E748
:403D00000121F2E7FF2010BD15491648FDF740FF14481549001DFDF73BFF124800210830FDF736FF54200449C043891C0870002010BD000000F02E40000D002000002E4005
:403D4000320300002F3F00003102000010520000EC160000FA12000031D000003AE300009956000080012E40F80F000070B50646581C80B245086D00002408E0304600F0B7
:403D8000C1F81055000A1119A41C4870A4B2AC42F4D3D80705D0D0182038D15CC47FD454C17770BD30B50A4C002100195B1E07E0541864782502545C2C430480891C89B276
:403DC0009942F5DB994201D1515C018030BD000000102E4010B5FF2000F0C4F90F49FF2048700E481021801D41800121417001700A490020C91C4870FFF704FF04000AD101
:403E000000F010F907210648FDF7B4FE044807211830FDF7AFFE204610BD0000000D0020CC112E4070B5002405465B1E0AE0284600F068F8010A161971702D1D1055A41C26
:403E4000ADB2A4B29C42F2DB9C4203D1284600F059F8105570BD000070B500210A4D5B1E0AE0541864782602545C344346193480001D891C80B289B29942F2DB994202D1C0
:403E8000515C4019018070BD00102E40F0B50599091FCFB200217E1E0BE0541864782502545C2C43164D45192C80001D891C80B289B2B142F1DBFC0712D01C78515C240207
:403EC0000F4A0C4381180C809C785D78001D210280B2294384182180001D80B2D9780CE059781A7809021143054A84182180001DD9789B78090280B2194380180180F0BD37
:403F000000102E40014940180088704700102E4010B50B490020487000F084F8002000F047F9002000F034F907210648FDF722FE044807211830FDF71DFE002010BD000078
:403F4000030D0020CC112E4010B50B46062812D006DC01280CD0032801D1FFF7D9FF10BD0A28FCD00B28FAD105480078107010BDFFF730FF10BD1146184600F035F910BD81
:403F8000060D0020F8B5244DAC6A0127A007234E002816DA307806280ED1286A384328621F480069F903084381B21D481030FDF7EFFD042000F0D6F8174802212830FDF777
:403FC000D9FDE00718D000F0E1FE01280FD1002000F02EFF062000F0C5F81049FF20C91E48707078002802D1686B384368630A4801212830FDF7BEFDE0050BD5307804280D
:4040000002D1052000F0AEF80348FF2101312830FDF7B0FDF8BD000040F02E40030D002000002E4010B503212348FDF7B1FD0120FDF786FE20483038406A204C8007617896
:40404000800F890001431C480C38FDF7A1FD6078002808D0401E022181401820FEF7FCF8C000083800E0B82081B21548FDF790FD1348032109021438FDF78AFD10481149A3
:40408000B830FDF785FD612189010F48FDF780FD0D480321001FFDF77BFD0C490C48FDF777FD0B480B496038FDF772FD084801218838FDF76DFD10BD70F02E40060D0020B9
:4040C000D8102E4090890000041E2E40FF0F000058122E40209000000849087806280BD148780749002803D1486B400840004863C86A01221043C86270470000030D0020A5
:4041000040F02E400148007870470000030D002000B50300FFF7B6F8080D050D0B070507090D012000BD032000BD042000BD022000BDFF2000BD0000074A9168D26889B269
:40414000064B92B2994204D105498A4201D1012100E000210170704780002E4033D000003FE3000010B50446FDF70AFE072C01D9FF2C01D102480470FDF7FCFD10BD000023
:40418000030D00200149487070470000000D002010B5064A012805D01921C9021046FDF7F7FC10BD1D21C902F8E7000090002E4010B50A4A141D012808D009491046FDF7FA
:4041C000E7FC08492046FDF7E3FC10BD04491046891CFDF7DDFC0349491DF3E788002E4031D000003AE3000070B50C460546FDF7E7FDC0B202280E49287804D0FF2810D0C8
:404200004C280CD810E0FF2809D10A4AD0680004800F032801D0087807E09069000A553803E00878207070BD4F382070087070BD020D002000002E40F0B50122002830D0BA
:4042400000292ED00424420600D00524792342065B06D21800D0641C034600221EE00C2516466E43104D00277519AF720E4F002ABB51696007D0661EB24209D10B4E8619D8
:404280007606760E05E05E06760E8027BE1B00E080269B198919521C2E81D2B2A242DED300221046F0BD0000D013002079020000074900200C2242435218927A012A05D063
:4042C000401CC0B20628F5D30020704701207047D0130020F8B50F000446164609D0184D18496868A04202D94018A04201D38E4201D90120F8BD39462046FEF7AFFD00287E
:404300001BD0324639462046FEF7B7FDF0B200210C224A43521913895668F718A74208D90127A41B1B1B9772834206DAC01A1469C0B2491CC9B20629EAD30020F8BD00003B
:40434000D01300207902000010B500F05DF80748054AC16806480C46FEF78FFD04492046FFF76AFF10BD0000790200000C0D002054110020002070470020054A002902D074
:40438000012902D002E0506000E09060002070470C0D002070B5084C154608460549A26889182A46FEF769FDA0684019A06028B270BD0000541100200C0D00203EB50A2264
:4043C0006946FFF7E7FF044606480A2200686946FEF744FD002802D00020C0433EBD20463EBD00000C0D0020002802D0044A914201D2FF20704703490A61C86000207047F5
:40440000790200000C0D00200248002141608160704700000C0D002070B5074C15460548626880182A46FFF755FF60684019606028B270BD541100200C0D002010B50349F8
:404440000A220968FFF7E8FF10BD00000C0D002010B50F4A002313600E4A13600E4B18600E4801600E49012008600E490860000290600E490C4808600D4914300860FF38D8
:404480001538506000F0BCF800F0CAF9002010BD380D0020200D00204C0D0020500D00203C0D00202C0D002018150020300D0020440D0020014610B50020002910D0094BAD
:4044C0001A689C685118A14209D25868196080188A0704D08A07920F891A091D196010BD002010BD200D0020F8B50024164E671E321F3D463168136806E0142262431032B9
:404500008A58521C1BD0641C9C42F6D36A1C14D02C461422544322460C3288500C214843FFF7C8FF3168002808510AD031680020103408517068401C70602846F8BD2546A1
:40454000E4E73846F8BD0000300D0020F3B50026F64381B000281BDB1E490968884217D80299002914D01B4F142204463F1D54432546396810354859401C09D0FDF700FC5D
:4045800038682F1F4159C359994203DBFDF7F2FB3046FEBD214608310091465801590C20704308180C220299FEF767FC0948761C001D0068C159B14200D100260549009AEF
:4045C000091D865008684159491C4151FDF7D2FB0020FEBD2C0D0020002803DB07490968884202D90020C043704704491422091D0968504310300858704700002C0D002026
:40460000F0B500200D4A451E0346171F50600FE014260146714314680E1DA3510C461668083433511668083435511468401C635039688842ECD30020F0BD0000300D00205E
:40464000F3B50026F64381B0002841DB2349096888423DD8029900293AD0204F142204463F1D54432546396810354859401C2FD0FDF786FB3868415900292BD0211D009163
:4046800046580C21005971430F46C1190C220298FEF7F3FB11480021001D0068761C00590C34C0190160416081600C48001D00680159B14200D100260849009A091D86505E
:4046C00008684159491E4151FDF754FB0020FEBD3046FEBDFDF74EFBFAE700002C0D0020FEB504460D4600201E49089E0860471E009001900290002C11D0486885420ED290
:40470000002A0CD0002E0AD0642E08D808460C3001681C2068430C18207A002801D03846FEBD0120226020721846FFF7DDFE6060401C13D06681A6810A4827610C306761E0
:404740000179A94200D205710021684601810A462846029B00F040F82846FEBD00202072DDE70000380D002038B50124009400F039F838BDFEB50027164EFF433D460024D1
:404780000EE01C20316860430818017A002906D04068FFF721FF002801D0254603E0641C3079A042EDDA681C12D01C2130684D434419FDF7E5FA69466068FFF741FF05462F
:4047C000FDF7D8FA002DD9D1216868468847D5E7FEBD0000440D002038B50024009400F001F838BD1FB500220C49541E0A60002811DB496888420ED808491C220C310968D2
:4048000050430818406801A9FFF7A0FE401C02D0002004B010BD2046FBE70000380D0020F0B50021114A4D1E174611710C3F0B46BD6016E008461C2460431668041D3551F3
:4048400014680646235014680836A3551468361DA353044616680A34335318301468491C255078688142E5D30020F0BD440D002038B500210091002811DB0F49097888426D
:404880000DDA0D4D04010C3529680859002807D0201D0818694600F06FF9002801D0002038BDFDF76DFA28680F34015D491E0155FDF760FA009838BD540D0020F7B582B08B
:4048C000002502986E1E06602E48D21C024017462D4A2C4610460C380178106805E02301C358002B0FD0641CE4B28C42F7D3711C28D03401211D40180191039900F02AF923
:4049000000281FD101E02646F1E71F48016820460C300F521C480399026820460E30115419480399026820460F3011540398784300F0A0F8144900280968085102D0002460
:40494000009011E001251AE00F48016801980818009900F02CF9002801D0012502E00098C0190090641CE4B203988442ECD3002D05D10298066004480179491C0171284629
:4049800005B0F0BDFCFF0000600D0020F8B50D4600216A468C461180002839DB23490978884235DA214B04010C3319680A59002A2ED020460C300B5A801C0E5C18467043FD
:4049C0008018954224D3854222D2002006E007465F43BF18AF4206D0401CC0B2B042F6D36046002814D0114E271DC8190C366A46294600F006F900280AD168460088012892
:404A000008D030682946C01900F0D1F8002803D00120F8BD0020F8BDFDF7B2F930680F34015D491C0155FDF7A5F9F3E7540D0020F8B50F46002400F031F8002817D10C493B
:404A400000220B460C334A600EE021011D680E466A501D680C36AA53B61C1D680F31AA551D68641C6A54E4B2BC42EED31A71F8BD540D002000280BD0C01C074A8108506893
:404A8000890053884118994203D89368516018187047002070470000540D0020F8B5064600200F4D009029700C0121466846FEF787FC00280CD129460C3100980860301B64
:404AC000001F84B221466846FEF77AFC002801D0FF20F8BD6C800098A8600020F8BD0000540D0020F8B5002827DB19490978884223DA174C05010C342168485900281CD0CA
:404B000028460C30085A009028460E300E5C401C0E5420682F1DC01900F064F800280CD12068002445590EE0094829460C300068C01900F03CF8002801D00120F8BD009807
:404B40002D18641CE4B2B442EED30020F8BD0000540D002030B50D4604000BD0A800FFF789FF6060002805D000202570C0436080002030BD012030BD70B50D46040005D0CF
:404B8000002D03D00220205E002801DA012070BDFDF7F6F80221615E60688900405828606088401E6080FDF7E5F8002070BD70B50D46040007D0002D05D002212078615EBC
:404BC000401E814201DB012070BDFDF7D9F86088401C00B26080616880000D50FDF7CAF8002070BD10B5040009D0227800216068FEF74CF90020C0436080002010BD0120B6
:404C000010BDF0B500231D46002802D00224045F0AE00120F0BD46689F00F6598E4201D1012503E05B1CDBB29C42F4DA15700020F0BD00000148007870470000680D0020EB
:404C40007CB505460024FEF755F9A8796946087000A8062229460130FEF70FF90021684604F0B0FC0C2806D0072806D01F2806D0122806D006E0022404E0042402E02724AC
:404C800000E0012420467CBD10B500F05FF9FFF739FAFFF73DFA10BD70B504460025FEF729F9002C06D0A079012803D8214602F067FC00E00125284670BD01460120002968
:404CC00002D05020088000207047000001460120002905D0034854220078504308800020704700006A0D002010B502460D49FE204870032410460CF043FE002810D10CF0F3
:404D0000E7FD00280CD105F033FA002808D100F013FB002804D104F0FBFE002800D10024204610BD680D002070B50025044600280ED0A07901280BD8FEF7DCF8A0790028D1
:404D4000204602D002F0C2FF03E002F097FF00E00125284670BD0000014610B50120002904D006220248FEF788F8002010BD0000740D002001460120002903D0087802496E
:404D800008700020704700006A0D00200148007A704700005016002038B504460120002C20D0617801291DD800290BD0FF25E535FEF7A0F80C4828180088C0B22070072885
:404DC00003D00EE0FF25CD35F2E70020694608706846FFF7B1F969460878012801D108202070002038BD000000102E40014A002192681047680D002008B500226B461A707D
:404E000026280CD0094A342852680BD0352805D1900703D50021352005F07CFA08BD19462620F9E7D007F9D03420F5E7680D0020014908727047000050160020F8B50446DA
:404E40000120002C26D06178012902D92278092A20D8002905D0FF25E5352078092803D004E0FF25CD35F8E708202070FEF742F82078114F114E08280DD00020FFF798F999
:404E800070780128207810D00D4969180880FE2070700020F8BD0120FFF78AF90720B8810549203188800120F2E7B8810248217820308180EBE70000C0112E40680D002089
:404EC00000102E4070B50E46050001D0002400E00C4C002C11D0E28A500609D5D107C90F022002F087FFE08A40218843E08204E0D107C90F012002F07DFF3146284602F0A0
:404F000065FC70BDB0150020F8B50546002004460D4E009013E022466946284600F0CAFF0098002801D00CF00DFDA878214602F085FAA878214602F073FA641CE4B2308A3B
:404F4000A042E8D8F8BD00007816002038B51E4CFFF7D8F8042813D0052811D0062812D003282AD007280AD100206946087002460120FEF7E9FFFFF7C5F80128FBD138BD89
:404F800000F06BFB38BD02F0AFFA00F066FB02F02BFB8007800F0228F4D10C4841880029F0D05B21095D0029ECD101210170A07D0140022002F01EFF38BD02F099FA012012
:404FC000FFF7D0F838BD0000B01500208E0D0020F8B50646002402F07BFF0546304602F091FF03460A480021068A0DE001228A401046174628401F40002803D0002F01D1F6
:40500000224394B2491CC9B28E42EFD82046F8BD781600201CB50020694648706846FFF7BBFE01AA69460A20FEF78EFF6946042008561CBD70B50D4601F01CFB04000BD061
:405040002079002808D0FDF755FFE178A0782A4602F042FC002070BD022070BD0148007870470000881500204030C07E002800D00120704700B500F001F800BD9021484358
:405080000749084A40186030417F491CC9B24177D289914201D300214177C8B270470000901500207816002013B501F0E3FA04000BD001F080FE002807D0214601AA0A315F
:4050C0000620FEF741FF00201CBD02201CBD000010B50C4601F0CEFA00280AD001F06BFE002806D0224604490A20FEF72DFF002010BD022010BD000071150020F3B581B0DC
:40510000074601460026029802F0DAFE0446002F01D0002500E0154D002D21D0284601F0DFFA032C04D13946029802F025FF06463846029902F074F9032C06D0002C10D042
:405140000121384601F0D2FB03E03146384603F00FF9284602F058F80221284602F06EF8FEBD3846029902F05BF9FEBDB015002010B5044600F05AFA002804D103F0B0FDBB
:40518000002801D00C2010BD2078611C02F0A6FCFF2801D01F2010BD02F0ECFCFF280AD02178621C02F0CAF8044821780068026B601C904710BD072010BD0000B40D0020FB
:4051C00010B503F08DFD002801D00C2010BD02F067FC03480068C06A8047002010BD0000B40D002070B50D46044610210CF0EAFA1021601806460CF0E5FA33461022194607
:40520000204603F09BFD102130460CF0DBFA02202870204604F0B2FB70BD0000F8B504464078217802028006870FE0781143A67809050002090D0643084601F01BFA002101
:405240000546F2B2002812D0002C10D0022F0ED0032F0CD0002A0AD00279092A07D0002A05D0134A5A23527E1B5C9A4207D82889002104F0B8FA20460CF064FBFF21002926
:4052800014D10C48224600682946436930469847C0B2FF280AD128464030817EF2B2491C8176FF232146284600F0E3F8F8BD000048150020D00D00200020704710B504464D
:4052C00003F00EFD002801D00C2010BD2078611C02F004FCFF2808D002F03CFB044821780068426B601C904710BD1F2010BD0000B40D002010B500F05FF904F009FC002062
:4053000010BD10B5044600786178E2780843A17811430843217908436179084305D003F0D1FC002803D00C2010BD122010BD204602F0CCFC002010BD10B5FCF741FD02F05C
:40534000E9FD044803F038FD02F00EFB012000F003F810BD58150020F1B586B003A8009005A8019028489F22817A114081726846FDF7DAFD002845D169460989C90705D010
:40538000224806990068C2686846904769460989890706D5002835D11D480068816A0698884700282ED11B4E0025757075737571F575357675767575B570F570B57137464F
:4053C000F5730120CC3738731F20F880FF2130467972A0300176457600F0C4FA00242046069901F093FC002803D1641C2406240EF5D0FD720749BD72B573C0310D704D7007
:405400004D600D7207B0F0BD48150020D00D0020B40D00209015002070B505460E46084602F056FD0446304602F06CFD0121A9400A46224001400A4301D0012070BD0020C0
:4054400070BD10B50446084602F05CFD0121A140014201D0012010BD002010BD10B5FEF751FE032804D102F043F80120FEF77AFE10BDFEB51C4616460F46054601F0C4FE10
:40548000A878FFF7F7FD02460190334639460094284600F00DF8002808D1A8780199FFF711FDFF2C02D138460CF04CFAFEBD0000FFB585B005460E980C46FF2810D02B493B
:4054C000C00009680A5840180179C0795278814201D9012601E09006860F6846038108E06078A1788006860FE0780002014368460181284601F06AFC070007D02146284608
:40550000079A00F06BFC384609B0F0BD304600F019FD04AE0346039002AA29460096204600F0A5FB3C20405D002818D0284601F04DFC012813D0684600890096C0B2019051
:40554000A878231DFF22079902F0F4F868460089039BC2B2A878079902F034FCD3E7684600890021C0B20091E9E70000CC0D0020F8B5104F002500242846FFF729FD06003E
:4055800012D00EE03046E040C007C00F07D02146284601F03DFF21462846FFF7AFFD641CE4B2388AA042EDD86D1C2D062D0EE2D0F8BD00007816002010B502F0D5F900206F
:4055C000FFF7CAFE0CF054FA002010BDF8B5002400F0B2F80123012800D10124104F00203E4620360425082203E0002801D0002100E031460979002907D001290BD0022956
:405600000BD0114681402143CCB2401C0006000EEBD07C70F8BD1C43F7E72C43F5E700009015002010B5FFF7D1FF10BD10B5044604F0C0FB002802D1601C00F001F810BD39
:405640001CB500240094062269460194FDF706FC002800D1122420461CBD10B5FCF769FA0446FEF74FFD012809D0FEF74BFD022805D0FCF765FA2046FCF75FFAEEE72046AE
:40568000FCF75BFA10BD10B50B4681791943817103D08078114602F063FB10BD10B582798A43827102D1807802F06EFB10BD000030B50C4C0220A28A0B4B9978002901D0D9
:4056C000022906D11D785B78EB18282B01D9032002E0032900D101205105490DC0020143A18230BDC0112E40840D002000B500F029F8002807D0012805D0032801D0042850
:4057000001D0002000BD012000BD014600B50020C90701D000F010F800BD014600B50020C90701D000F008F800BD000001480068704700007C0D002001480088000A70475E
:4057400020102E400448008B410501D5042070474007800F7047000000102E4010B501F009FF044601F046FF0146204601F02AFF10BD000001484068704700007C0D00208F
:4057800038B50446000610D5FFF7DCFF01280CD1684601F0BDFE6846007800F023FB012001F09AFD0220FFF73DFF600708D507480179012904D1002101712620FFF71CFB73
:4057C0000348006801692046884738BD880D0020B40D002070B505460C49007800240870FFF7AAFF012803D1FFF7B8FF022803D3284602F0D7F907E0284600F0EBF804004E
:4058000002D1034801210170204670BD840D00205016002070B50446FFF78EFF002801D00C2070BDA27B01211F48002A827801D00A4301E05208520082706279012A14D058
:40584000C17849084900C170184D2868016820468847207901280CD06188208803F002F82080207904280FD015E0C2780A43C270EAE72868C168E01D8847E01D02F012FA32
:405880000B48808C208006E02868C168E01D8847E01D02F007FA074920798870204602F08FF9002070BD000090150020B40D002048150020840D002008B50178FFF73CFF45
:4058C000814201D10C2008BD002914D0072069460870FFF70BFF012807D10121684600F0D9F8012801D0092008BDFFF7E1FE02F09BF9012011E0FFF7F9FE012806D1684645
:4059000001F006FE6846007800F0A0FA02F082F9FFF712FF0028FBD10220FFF783FE002008BD000070B505460C49007800244870FFF702FF012803D1FFF710FF022803D3CA
:40594000284602F0EDF907E0284600F05DF8040002D1034801214170204670BD840D00205016002038B568460BF082FF002801D01F2038BD01210098C90201804180002558
:4059800005714571857107214173857302F018F9009C202200212046FDF778FA25702A460021601CFDF772FA204602F0FBF8204602F0B6F900980BF0C5FF062200210448E3
:4059C000FDF764FA02480C388560002038BD0000880D0020F8B504460025684600950BF047FF002801D007250AE0064E009830602278611C401CFDF740FA316820780870A3
:405A00002846F8BD7C0D0020F8B504460025684600950BF02DFF002801D007250AE0064E009870602278611C401CFDF726FA7168207808702846F8BD7C0D00200346084874
:405A400000B5834209D8184600F014FE002804D00089984201D1012000BD002000BD0000FF0E0000074A9179491C8906890E917138220A4092014907090E11430843024902
:405A80000840704790150020FF0E0000C006C00E70470000F8B507460E4600240D4803E0002C01D0002500E005462979002905D0641C2406240EF3D00020F8BD0021204638
:405AC00001F024F92E712046FFF7CCFF28813C700120F8BDB015002010B503F063F90222002100F003F801F0EBFE10BD10B5094B40074907000F090F185A595A40185043F0
:405B0000C0086421FCF7B8FA002800D1012080B210BD0000AC430100F7B53D20405C88B015460C46002802D02878042802D200200BB0F0BD6946087200262046FFF794FA85
:405B4000012800D00126204603A938300191009023460327A17E34333246206A03F046F902A8089900900B46019120463A4603A9243003F0C3F802466846007A287020465C
:405B800001F0B0F81046D3E7FFB587B00C4605461078694608723D20005D1746002826D000262046FFF760FA012800D00126204603A93830019100902346A17E34333246CF
:405BC000206A03F013F902A80090291D019120462B1D03A924300A9A03F090F802006846007A388002D1204601F07CF810460BB0F0BDF0B505463C20405C89B016460C4630
:405C000000280CD0307869460873002806D000272046FFF729FA012803D003E01F2009B0F0BD012703200890204604A93830019100902346E17E34333A46E06903F0D6F82D
:405C40006846007B03A928180290009120462B46019504A92430089A03F084F802466846007B3070204601F047F81046D7E7FFB505463C20405C89B016460C46002810D0CC
:405C8000084601F0A3F801280BD0308869468883002809D000272046FFF7E6F9012805D005E000200DB0F0BD0220FBE70127204603A93830019100902346E17E34333A464D
:405CC000E06903F093F8291D2B1D07A8129A6D4607C5204603A924300C9A03F043F802466846808B3080204601F006F81046D9E770B50D460446FFF7B7F901280AD0E87A52
:405D0000A97A00020143A07801F0D6FC012808D0002070BD00222421204602F0F5FC242070BD28214C200155204600F0B1FB282070BD0000002801D0002000E0034840307A
:405D4000C07F012800D0002070470000B01500200146002049070ED50021084B03E0002901D0002200E01A461279022A04D0491C0906090EF3D0704701207047B015002095
:405D80000146002049070ED50021084B03E0002901D0002200E01A461279022A04D0491C0906090EF3D0704701207047B015002010B5044680346068002803D00BF0D6FDF5
:405DC0000020606010BD4030417070474030817070474030017070470171704792001018C166704770B53C2501F08EF9040004D020460021433001F013FCFF2229462046E7
:405E000000F0E2FB002C02D0A07801F0FFF870BD10B5002801D0002000E00348002802D0008903F027FD10BDB015002010B5002801D0002000E00448002804D00179072965
:405E400001D100F047F810BDB015002010B501F05BF9002802D0807801F0D8F810BD00207047000070B50546008A00281ED01049F122897A1140C90618D5294640314A8ACE
:405E8000098A521C4A4392B2D10800D10121540801E0621A94B2A042FBD9FEF7CBFE012804D1298AA878224601F0CCFC70BD00004815002010B50023054C0B60248A94420D
:405EC00004D992001018C26E0A60C36610BD00007816002038B5044600200090A079002814D14020015D052901D00E290ED168460BF0CEFC002809D12046009902F0E2FBAA
:405F000003481021C28A2046FFF7BDFB38BD00004815002010B50B4604460146184602F05FF8002802D020460BF016FD10BD13B5044601AA11460620FEF706F868468188A6
:405F400061811CBD002800D10220704770470000F8B504462346401D543300909A1EA078911E01F0F1FA25464035A88A298A8000FCF782F8401E81B2688A884203D96982E8
:405F8000A07801F071FF698A8C20015120460021433001F045FB27480088E88102F002FFE989891C8AB26179FFF7A0FD01F088FC02F0F8FE2A8A6179FFF798FD074601F085
:405FC00073FC688A002806D01B49088A032212021043088202E0002001F03AFF1648803801886E8A002E0CD0304648431349FCF733F90004000C01D0401C80B2104948805D
:4060000002E00F4800214180288A704381B2A07801F094FEFF2228374932B9B21346204602F024FCE98AA07801F008FEA07801F017FAF8BD80102E40E0112E4071020000BA
:406040008E0D00207FB504468034616805460E46183108226846FCF710FF31462031082202A8FCF70AFF102168460BF0ABFB6068102108300BF0A6FB60682B4608302433FB
:406080001022694602F05AFE7FBD10B504460821FFF704FB10212046FFF700FB207905281FD006281DD008281AD12189002003F059FB072020712046FEF7D6FF0146204633
:4060C0004030012913D00E21017000210176204600F0AEFF2046FFF76BFE2046FFF7C2FE10BD20890122002103F020FBE1E70521EAE70000FFB581B01F4604460821FFF7CD
:40610000CDFA10212046FFF7C9FA2079082803D0092804D0042203E00422012501E009220025204600F03EFE264600204036307022712046FFF73CFE0398002D02D0012801
:4061400008D00BE001280AD120890022029903F0EDFA04E02189029803F004FB012700203076012F04D0204600F062FF05B0F0BD02983073204602F0F3FA054605480121B7
:40618000C28A2046FFF77FFA002DEFD109202071ECE700004815002070B50C460546FEF763FF012809D108212846FFF777FA0023012221462846FFF79DFF70BD10B50446C4
:4061C00000F0F0FD2046FFF7F3FD00214034217010BD70B505461A24FEF746FF012809D108212846FFF75AFA0023012221462846FFF780FF70BD0000F8B504460020009053
:406200000E4668460BF044FB002801D00D20F8BD8420005908212030009D00F026FA20460421383000F021FA002E02D1204600F0F5FD2946204602F0D4F90E480821C28A7E
:406240002046FFF720FA204600F063FF25464035002808D0204600F023F8002801D0092028700020F8BD08202870204600F0CCFFF7E7000048150020014610B540310A4607
:406280000978082906D0092907D00A2901D100F091F810BD0B20107010BD00F001F810BD70B50446007925464035052805D0062803D008280FD00C2070BD032206212046EF
:4062C00002F022FA0D480821C28A2046FFF7DBF91120287010E006202873204602F040FA0646AA8A0A20424301212046FFF7CBF9002E01D109202071002070BD4815002095
:4063000038B504460020009068460BF0C1FA002801D00D2038BD2046009D00F0BDF908202071204600F07AFD2946204602F08CF900213D2001550F2040210855204600F065
:4063400063FF002038BD00B5024600F02BFD10214032117000BD10B50446FEF785FE012809D04020005D112805D100231A4606212046FFF7BFFE10BD10B5FFF786FE10BDBF
:4063800038B504460021684600910BF081FA00280CD12046009902F0D8F905480821C28A2046FFF770F90D204034207038BD00004815002038B504460021684600910BF04D
:4063C00067FA002801D00D2038BD2046009902F0B1F905480821C28A2046FFF754F90C2040342070002038BD4815002000787047F8B5002569460D70002801D0002400E02F
:406400001F4C002C18D0204600F0D5FC002813D0207903280BD005280CD026464036B18AA07801F095FCB078012806D01DE0042020711DE006202071F8BD0021204601F092
:40644000ECFD274680373868002802D00BF08EFA3D600020B0702079072802D12046FFF701FD0221204600F0E9FE20790428E3D1207A694608703420FEF7BEFCF8BD0000CE
:40648000B015002010B54C22115400F04CF810BD10B50446FF21FFF701F909202071A07801F07CFC10BD000038B5FF216A461180002801D0002400E0084C002C0DD0114638
:4064C0000620FDF741FD684601882046FFF72FFD03480068C1692046884738BDB0150020D00D002010B504468079002809D022214C200155FF212046FFF7D0F8204600F0F4
:4065000012F810BD10B5037902464032002B03D01173092B02D003E0002100E02221117300F001F810BDFEB504460089002700902781207926464036002817D0012815D023
:4065400002280AD112E002AA01A9204601F036FD002807D101980BF0FFF9204601F056FD0028F0D02046FEF7CFFCB776254680352868002802D00BF0F9F92F6068680028B5
:4065800002D00BF0F3F96F60317B002919D0009800F064F8A078002100F07EFF2046FFF79BFAA07801F072F8A07800F02FFDFF212046FFF773F80B20FFF734F800F068FCEB
:4065C000FEBD1F213173E2E7F8B517460E46054602F0E4FB04003CD020460C3001F010F82046062200211830FCF750FC2046062200211230FCF74AFC164822460068394601
:40660000436A28469847074626702846FEF72CFD012148406070002D10D02889608028464030C1782171002E0FD169796171018AE180418A2181808A608106E00648008B6B
:40664000C005C00F2071002060803946204603F00CF8F8BDB40D002000102E400A4610B50146002003F01EF910BD10B50AF086FE10BD000000B50146FFF708FA002801D0B5
:40668000002000E00348002802D002898A4200D0002000BDB015002038B5044680346068002806D168460BF003F9002801D100986060606838BD000010B5014600F086FBC9
:4066C0000128887802D0FEF7D9FC10BD90214843024940186030007F10BD00009015002070B5054604464035A87F012811D1A1789020084A484380186030067F3046FEF769
:406700008BFE002805D10220A877A078314601F067F870BD9015002010B50C4CA07A002813D0FEF725FF0A48027F417F408B00F0B7FB012809D10020A07200F0FFFE0549F5
:406740008989090B01D000F03BFA10BD5C16002090150020A0102E4070477047490510B5490F0B00FCF78EFD060704080C0C0F073E21FFF787FE10BD0821FFF7C3FE10BDBE
:40678000FFF7D1FE10BDFFF7ADFE10BDF8B507460025002D01D0002600E0204E00F092FE3046403044890021418100F095FE304600F001FB01282BD1A00702D52846FFF746
:4067C00017FEE00602D52846FFF76EFEA00601D5FEF7CEFE600601D500F014FB200602D5284600F01DF8600702D5284600F02CFA380402D52846FFF719FB780402D5284601
:40680000FFF706FBE00703D021463046FFF7A6FF6D1C2D062D0EBCD0F8BD0000B0150020F8B5002801D0002400E0284C002C4BD025464035A878012846D1FF27882049371F
:4068400000593E46002805D02149897A890601D5878AC68A2046FEF707FC012834D002F0A1FA2A8A6179FFF741F9009001F01CF800983346283081B23A46204601F0F6FF38
:40688000E98AA07801F0DAF912480188688A124E002810D048431149FBF7DEFC0004000C01D0401C80B27080A07DC107C90F002001F0A0FA01E000207080288A698A4843B3
:4068C00081B2A07801F03AFAF8BD0000B01500204815002060112E408E0D0020710200000149096809680847D00D002070B50D460026194A0146002801D0002401E01446EC
:406900002034002C26D0204600F060FA01280AD19020484380186030007FFEF77DFD002801D101F09DFE0D48006881692046884700280CD020464030817EA94202D3491B7D
:40694000817600E086762089294602F04CFF204600F05AFC70BD000090150020D00D002070B503460088FFF785FE040013D000F022FA00280FD02079092819D025469978BC
:4069800040352973204601F0EBFE0646A878012803D0AA8A02E0022070BDEA880A20424301212046FEF76FFE002E01D109202071002070BD0EB5002217216B4602921981AB
:4069C00000905A810120029B00990BF06FF80EBDF8B518480024807A002822D1164E0025B089000B22E0204600F02AFE1249A039401807882A462146384600F051FA012841
:406A000010D00E480122478305770A4944778A72002D01D0002000E02030002801D000F0F3FBF8BDB089000B641CE4B20028DAD1F8BD00005C160020A0102E40901500207C
:406A400010B50088FFF716FE002809D0014640310C460978082905D00B2903D00C2010BD022010BDFFF71CFC002801D009202070002010BD70B503460088FFF7FBFD0400A9
:406A800008D0254640352878082805D00B2803D00C2070BD022070BD8420005910220830991CFCF7EAF92046FFF7CCFA2878082804D02046FFF77EFC002801D00A20287082
:406AC000204600F0A1FB002070BD000010B50C46002121700088FFF7CDFD03000BD000F06AF9002807D00948F121807A0840C00603D4112010BD022010BD022020701A8A91
:406B00001889002102F0EAFE002010BD48150020F8B50F46002100910088FFF7ABFD040012D000F048F900280ED0E079410641D4617E02264A07002A08DB89074025002920
:406B40001ADA2843E07135E00220F8BD02F026F90021017021894180A1898180217E4170E189C1803E7005460178134802F090FB284602F057FE1DE0204600F02DF90128A4
:406B800006D068460AF084FE002803D00720F8BD2A20F8BDE07900992843E071204601F009FE607E0421304360760448C28A2046FEF769FD0020F8BD1D04000048150020DB
:406BC0003EB500220F236C460292238100910190628169460EC900200AF068FF3EBD0000F8B50F46054600F08FFA040025D003202071254600264035EE76E6702046FFF7CE
:406C0000A7F901F007F80920FEF70CFDA07800F02BFD0121204600F011FB2E706E70AE703A4600212046FFF7CFFC0649887B401C8873A078FFF754FEF8BD284601F0AEF8C4
:406C4000F8BD00009015002010B5002801D0002000E0094800280DD0014640310A464978022901D100215170807DC107C90F002001F0C0F810BD0000B015002070B5034658
:406C80000D460088FFF7F6FC04000BD000F093F8002807D01248F121807A0840C00603D4112070BD022070BD20464030418A008A491C41430804C10C5888884201D2122024
:406CC00070BD20822079072802D12046FFF7CAF8022028702089002102F028FE002070BD48150020016A491C016204D1817E491C4906490E81767047C169491CC16104D160
:406D0000C17E491C4906490EC1767047F0B5074687B003A8009005A800260D460190002F01D0002400E01B4C002C05D06846FCF7FBF8002803D00BE0022007B0F0BD6846E6
:406D40000089C00704D1902200212046FCF79EF8114829460068826820469047050016D1A77066762746267140373E70204600F019F8204601F046F9084820820848BE7759
:406D8000807AF121084000D001202075E682E8B2D3E70000B0150020D00D0020B80B000048150020002101628176C161C17620300177417770470079002805D0012803D09E
:406DC000022801D001207047002070474030807F002800D00120704740300078002807D0012805D0052803D00E2801D0012070470020704710B5807801F084F8002800D0ED
:406E0000012010BD10B500F099FB03498989090B01D0FFF7D5FE10BDA0102E4070B5054604464035A87F002825D1FF206075A0789021154A484380186030417F9023491C09
:406E4000C9B24177A0785843104B8018DB896030994201D300214177A0789021484380186030467F0677A1783046FEF7D5FA002802D00120A87770BD0220A877A078314675
:406E800000F0AEFC70BD000090150020781600200020401C0006000EFBD0002070470000F0B515468207920F85B0000A02926A469080002D01D0002400E0524C002C28D0E5
:406EC000084600F0BDFB07466846808800280BD00298012843D0022841D003280BD03D20005D012870D087E04748381801882046FFF71DF880E00020029002A80AF0A8FCC2
:406F0000002807D03D20005D012878D12046FFF7E9FE74E06846029E8388324600213846FCF724FF3848381801882046FEF7FFFF284600F0A1FA01AA21463046FEF7ECFDF8
:406F4000002806D030460AF0F3FC3D204C21085528E0F5773146204601F0BAF94FE0002000902089039068460AF062FC002802D0002005B0F0BD6846009E8388321D002134
:406F80003846FCF7F3FE2048381801882046FEF7CEFF284600F070FA25464035287E00280CD103E02046FFF773FA28E001AA21463046029BFEF7E8FD002806D030460AF092
:406FC000ADFC3D202873EDE713E00298FEF7BEFF01460398307003980901000A0843707068468088B070000AF0703046FFF7E2FC05E02046FFF776FE284600F03DFA01208C
:40700000B7E70000B015002000102E4010B5074A917B002901D0491E91730021FFF776FE002801D0002010BD012010BD90150020F8B5074606464037B87F00282DD0B07863
:40704000902100904843234945186035287F0099FEF7F7F901281ED0287F401CC4B21E48C089A04200D800240020B877FF276F772F77A87702460146009800F01DFD717D65
:40708000FF2903D0304600F07EFF777501F0E8FA0025114F19E00320B877F8BD00200090224669463046FEF705FF0099002904D0FF231A463046FEF7DCF9641CF889E4B289
:4070C000A04200D800246D1CEDB2F889A842E5D8F8BD0000901500207816002010B502460021084B03E0002901D0002000E018460479944204D0491C0906090EF3D00020E9
:4071000010BD0000B015002000B50120FFF7E6FF00BD10B5044601F041FE2189018080346168416061682831816002F035FB10BDF7B50646087982B00C46092807D0A07898
:40714000F0770846FFF742FE012806D010E030460AF002FC022005B0F0BDA1789020294A484380186030007FFEF756F9012810D0A078FEF7DFFD01280BD037780121304654
:4071800001F01AFA25462035062F38D00B2F0FD107E06846027C21463046FEF7BBFE0D20D9E72046FDF760FF012801D1002028772046FFF781FA054604AA21463046FEF713
:4071C00018FD01205F2108556946097C002001910090A07833463A46294600F0ABFA69460A7CA0780323294600F0ECFDA0782946FDF768FE30460AF0AFFB0020ABE7012068
:40720000D5E700009015002010B502464032937F0021002B03D1927E002A00D00121064A927A002A00D000210279092A00D10121807800F0FFFD10BD5C16002070B50C461E
